1001200364252016020120160305
2RPS  A    00000000037320160305T000000000009990000000000000000056570300210002781170283500000000000000000000Debora Savassi Maggian                                                        Rua Doutor Francisco Augusto Cesar                248                                     Jardim Iraj                                                                     SP14020530nutri@deborasavassi.com.br                                                 AULA DE GINASTICA E AFINS                                       00043402Ribeirao Preto                                              Debito em conta                                             nutri@deborasavassi.com.br                                                                                                                            
2RPS  A    00000000037420160305T000000000005990000000000000000056570300210002781170283500000000000000000000Debora Savassi Maggian                                                        Rua Doutor Francisco Augusto Cesar                248                                     Jardim Iraj                                                                     SP14020530nutri@deborasavassi.com.br                                                 AULA DE GINASTICA E AFINS                                       00043402Ribeirao Preto                                              Debito em conta                                             nutri@deborasavassi.com.br                                                                                                                            
2RPS  A    00000000037520160305T000000000007990000000000000000056570300210000371793769300000000000000000000Alessandra braguin                                                            Avenida Caramuru                                  3402                                    Jd Republica                                                                    SP14025710alessandra@gbegembalagens.com.br                                           AULA DE GINASTICA E AFINS                                       00043402Ribeirao Preto                                              Cartao de Credito                                           alessandra@gbegembalagens.com.br                                                                                                                      
2RPS  A    00000000037620160305T000000000009990000000000000000056570300210000553880969200000000000000000000Fernando R de Oliveira                                                        Rua Doutor Jose Guimaraes                         110                                     Jardim Iraj                                                                     SP14020560fernandinhopbf@hotmail.com                                                 AULA DE GINASTICA E AFINS                                       00043402Ribeirao Preto                                              Cartao de Credito                                           fernandinhopbf@hotmail.com                                                                                                                            
2RPS  A    00000000037720160305T000000000005990000000000000000056570300210000553880969200000000000000000000Fernando R de Oliveira                                                        Rua Doutor Jose Guimaraes                         110                                     Jardim Iraj                                                                     SP14020560fernandinhopbf@hotmail.com                                                 AULA DE GINASTICA E AFINS                                       00043402Ribeirao Preto                                              Cartao de Credito                                           fernandinhopbf@hotmail.com                                                                                                                            
2RPS  A    00000000037820160305T000000000009990000000000000000056570300210002215768487500000000000000000000Ligia R L Laguna                                                              Rua Cavalheiro Torquato Rizzi                     1169                                    Jardim So Luiz                                                                  SP14020300ligia.laguna@hotmail.com                                                   AULA DE GINASTICA E AFINS                                       00043402Ribeirao Preto                                              Cartao de Credito                                           ligia.laguna@hotmail.com                                                                                                                              
2RPS  A    00000000037920160305T000000000005990000000000000000056570300210002215768487500000000000000000000Ligia R L Laguna                                                              Rua Cavalheiro Torquato Rizzi                     1169                                    Jardim So Luiz                                                                  SP14020300ligia.laguna@hotmail.com                                                   AULA DE GINASTICA E AFINS                                       00043402Ribeirao Preto                                              Cartao de Credito                                           ligia.laguna@hotmail.com                                                                                                                              
2RPS  A    00000000038020160305T000000000009990000000000000000056570300210002265319082600000000000000000000Junior Bitar                                                                  Rua Jose Antonio de Freitas                       145                                     Parque das Andorinhas                                                           SP14057220duduoliveira87@hotmail.com                                                 AULA DE GINASTICA E AFINS                                       00043402Ribeirao Preto                                              Cartao de Credito                                           duduoliveira87@hotmail.com                                                                                                                            
2RPS  A    00000000038120160305T000000000005990000000000000000056570300210002265319082600000000000000000000Junior Bitar                                                                  Rua Jose Antonio de Freitas                       145                                     Parque das Andorinhas                                                           SP14057220duduoliveira87@hotmail.com                                                 AULA DE GINASTICA E AFINS                                       00043402Ribeirao Preto                                              Cartao de Credito                                           duduoliveira87@hotmail.com                                                                                                                            
2RPS  A    00000000038220160305T000000000009990000000000000000056570300210003537300980600000000000000000000Diego Fernando Sciotti                                                        Rua Abrao Caixe                                   759                                     Vila Ema                                                                        SP14020630dfsciotti@gmail.com                                                        AULA DE GINASTICA E AFINS                                       00043402Ribeirao Preto                                              Cartao de Credito                                           dfsciotti@gmail.com                                                                                                                                   
2RPS  A    00000000038320160305T000000000009990000000000000000056570300210003499213184000000000000000000000Felipe Lourenco                                                               Rua Capitao Jarbas Vieira de Souza                445                                     Jardim So Luiz                                                                  SP14020470felipe@iclinec.com.br                                                      AULA DE GINASTICA E AFINS                                       00043402Ribeirao Preto                                              Cartao de Credito                                           felipe@iclinec.com.br                                                                                                                                 
2RPS  A    00000000038420160305T000000000005990000000000000000056570300210003499213184000000000000000000000Felipe Lourenco                                                               Rua Capitao Jarbas Vieira de Souza                445                                     Jardim So Luiz                                                                  SP14020470felipe@iclinec.com.br                                                      AULA DE GINASTICA E AFINS                                       00043402Ribeirao Preto                                              Cartao de Credito                                           felipe@iclinec.com.br                                                                                                                                 
2RPS  A    00000000038520160305T000000000005990000000000000000056570300210003537300980600000000000000000000Diego Fernando Sciotti                                                        Rua Abrao Caixe                                   759                                     Vila Ema                                                                        SP14020630dfsciotti@gmail.com                                                        AULA DE GINASTICA E AFINS                                       00043402Ribeirao Preto                                              Cartao de Credito                                           dfsciotti@gmail.com                                                                                                                                   
2RPS  A    00000000038620160305T000000000005990000000000000000056570300210004339594784000000000000000000000TULIO DUARTE JACOB                                                            rua primo lingane                                 390                                     jd das acacias                                                                  SP14140000duarte.tulio@hotmail.com                                                   AULA DE GINASTICA E AFINS                                       00043402Ribeirao Preto                                              Cartao de Credito                                           duarte.tulio@hotmail.com                                                                                                                              
2RPS  A    00000000038720160305T000000000007990000000000000000056570300210002640621688100000000000000000000Caio Cesar Caixe da Fonseca                                                   Luciana Maka Ignacio                              575                                     Bosque das Juritis                                                              SP14021635f.caio@hotmail.com                                                         AULA DE GINASTICA E AFINS                                       00043402Ribeirao Preto                                              Debito em conta                                             f.caio@hotmail.com                                                                                                                                    
2RPS  A    00000000038820160305T000000000005990000000000000000056570300210004054150187900000000000000000000Erica Crogenale Nocente                                                       Avenida Dom Pedro I                               1293                                    Ipiranga                                                                        SP14055620ericanocente@hotmail.com                                                   AULA DE GINASTICA E AFINS                                       00043402Ribeirao Preto                                              Cartao de Credito                                           ericanocente@hotmail.com                                                                                                                              
2RPS  A    00000000038920160305T000000000005990000000000000000056570300210003006241983800000000000000000000Carla J Sacutti                                                               Rua Capitao Jarbas Vieira de Souza                416                                     Jardim So Luiz                                                                  SP14020470carlabarrot@gmail.com                                                      AULA DE GINASTICA E AFINS                                       00043402Ribeirao Preto                                              Cartao de Credito                                           carlabarrot@gmail.com                                                                                                                                 
2RPS  A    00000000039020160305T000000000009990000000000000000056570300210004307512880500000000000000000000Leticia Fernandes Bar                                                         Rua Arnaldo Victaliano                            881                                     Jardim Palma Travassos                                                          SP14091220lety.fb93@gmail.com                                                        AULA DE GINASTICA E AFINS                                       00043402Ribeirao Preto                                              Debito em conta                                             lety.fb93@gmail.com                                                                                                                                   
2RPS  A    00000000039120160305T000000000005990000000000000000056570300210004307512880500000000000000000000Leticia Fernandes Bar                                                         Rua Arnaldo Victaliano                            881                                     Jardim Palma Travassos                                                          SP14091220lety.fb93@gmail.com                                                        AULA DE GINASTICA E AFINS                                       00043402Ribeirao Preto                                              Debito em conta                                             lety.fb93@gmail.com                                                                                                                                   
2RPS  A    00000000039220160305T000000000009990000000000000000056570300210001046274260100000000000000000000Eduardo Vaz de Oliveira                                                       Rua Professor Roberto Jose                        85                                      Nova Aliana                                                                     SP14026562eduardo07vaz@gmail.com                                                     AULA DE GINASTICA E AFINS                                       00043402Ribeirao Preto                                              Cartao de Credito                                           eduardo07vaz@gmail.com                                                                                                                                
2RPS  A    00000000039320160305T000000000009990000000000000000056570300210000202671488600000000000000000000Fatima Aparecida da Graca Spano                                               Rua Doutor Paulo Tinoco Cabral                    423                                     Jardim So Luiz                                                                  SP14020270fatimaspano@hotmail.com                                                    AULA DE GINASTICA E AFINS                                       00043402Ribeirao Preto                                              Cartao de Credito                                           fatimaspano@hotmail.com                                                                                                                               
2RPS  A    00000000039420160305T000000000005990000000000000000056570300210001046274260100000000000000000000Eduardo Vaz de Oliveira                                                       Rua Professor Roberto Jose                        85                                      Nova Aliana                                                                     SP14026562eduardo07vaz@gmail.com                                                     AULA DE GINASTICA E AFINS                                       00043402Ribeirao Preto                                              Cartao de Credito                                           eduardo07vaz@gmail.com                                                                                                                                
2RPS  A    00000000039520160305T000000000009990000000000000000056570300210002211168680800000000000000000000TATIANA C VERALDI                                                             Rua Manoel Lopes Velludo                          100                                     Nova Aliana Sul                                                                 SP14027035guigomide@hotmail.com                                                      AULA DE GINASTICA E AFINS                                       00043402Ribeirao Preto                                              Debito em conta                                             guigomide@hotmail.com                                                                                                                                 
2RPS  A    00000000039620160305T000000000005990000000000000000056570300210000202671488600000000000000000000Fatima Aparecida da Graca Spano                                               Rua Doutor Paulo Tinoco Cabral                    423                                     Jardim So Luiz                                                                  SP14020270fatimaspano@hotmail.com                                                    AULA DE GINASTICA E AFINS                                       00043402Ribeirao Preto                                              Cartao de Credito                                           fatimaspano@hotmail.com                                                                                                                               
2RPS  A    00000000039720160305T000000000005990000000000000000056570300210002211168680800000000000000000000TATIANA C VERALDI                                                             Rua Manoel Lopes Velludo                          100                                     Nova Aliana Sul                                                                 SP14027035guigomide@hotmail.com                                                      AULA DE GINASTICA E AFINS                                       00043402Ribeirao Preto                                              Debito em conta                                             guigomide@hotmail.com                                                                                                                                 
2RPS  A    00000000039820160305T000000000009990000000000000000056570300210003688930584100000000000000000000vanessa f sabino                                                              Avenida Paris 707 - Condominio Residencial Primaveap 10                                   Independncia                                                                    SP14076900dani_kayros@hotmail.com                                                    AULA DE GINASTICA E AFINS                                       00043402Ribeirao Preto                                              Cartao de Credito                                           dani_kayros@hotmail.com                                                                                                                               
2RPS  A    00000000039920160305T000000000005990000000000000000056570300210003688930584100000000000000000000vanessa f sabino                                                              Avenida Paris 707 - Condominio Residencial Primaveap 10                                   Independncia                                                                    SP14076900dani_kayros@hotmail.com                                                    AULA DE GINASTICA E AFINS                                       00043402Ribeirao Preto                                              Cartao de Credito                                           dani_kayros@hotmail.com                                                                                                                               
2RPS  A    00000000040020160305T000000000007990000000000000000056570300210002698273984800000000000000000000Fabiano de Souza Pereira                                                      Rua Felisberto de Carvalho                        210                                     Planalto Verde                                                                  SP14056600fabianopereira@hotmail.com                                                 AULA DE GINASTICA E AFINS                                       00043402Ribeirao Preto                                              Debito em conta                                             fabianopereira@hotmail.com                                                                                                                            
2RPS  A    00000000040120160305T000000000009990000000000000000056570300210002211168680800000000000000000000TATIANA C VERALDI                                                             Rua Manoel Lopes Velludo                          100                                     Torre lumina                                                                    SP14027035taticomacchio@hotmail.com                                                  AULA DE GINASTICA E AFINS                                       00043402Ribeirao Preto                                              Debito em conta                                             taticomacchio@hotmail.com                                                                                                                             
2RPS  A    00000000040220160305T000000000005990000000000000000056570300210002211168680800000000000000000000TATIANA C VERALDI                                                             Rua Manoel Lopes Velludo                          100                                     Torre lumina                                                                    SP14027035taticomacchio@hotmail.com                                                  AULA DE GINASTICA E AFINS                                       00043402Ribeirao Preto                                              Debito em conta                                             taticomacchio@hotmail.com                                                                                                                             
2RPS  A    00000000040320160305T000000000009990000000000000000056570300210002591704783900000000000000000000Leandro A Felix                                                               Rua Antonio Martinez                              238                                     Jardim Palma Travassos                                                          SP14091250leandrofelix07@gmail.com                                                   AULA DE GINASTICA E AFINS                                       00043402Ribeirao Preto                                              Cartao de Credito                                           leandrofelix07@gmail.com                                                                                                                              
2RPS  A    00000000040420160305T000000000005990000000000000000056570300210002591704783900000000000000000000Leandro A Felix                                                               Rua Antonio Martinez                              238                                     Jardim Palma Travassos                                                          SP14091250leandrofelix07@gmail.com                                                   AULA DE GINASTICA E AFINS                                       00043402Ribeirao Preto                                              Cartao de Credito                                           leandrofelix07@gmail.com                                                                                                                              
2RPS  A    00000000040520160305T000000000009990000000000000000056570300210003957924189900000000000000000000Felipe Leipner Margatho                                                       Rua Luciana Mara Ignacio                          576                                     Jardim Botnico                                                                  SP14021635fmargatho31@hotmail.com                                                    AULA DE GINASTICA E AFINS                                       00043402Ribeirao Preto                                              Cartao de Credito                                           fmargatho31@hotmail.com                                                                                                                               
2RPS  A    00000000040620160305T000000000005990000000000000000056570300210003957924189900000000000000000000Felipe Leipner Margatho                                                       Rua Luciana Mara Ignacio                          576                                     Jardim Botnico                                                                  SP14021635fmargatho31@hotmail.com                                                    AULA DE GINASTICA E AFINS                                       00043402Ribeirao Preto                                              Cartao de Credito                                           fmargatho31@hotmail.com                                                                                                                               
2RPS  A    00000000040720160305T000000000009990000000000000000056570300210003038356280500000000000000000000Maria B Sandoval                                                              RD SP 328 kM 310                                  Casa 07                                 Bomfim Paulista                                                                 SP14110000juliolaurentino@hotmail.com                                                AULA DE GINASTICA E AFINS                                       00043402Ribeirao Preto                                              Cartao de Credito                                           juliolaurentino@hotmail.com                                                                                                                           
2RPS  A    00000000040820160305T000000000009990000000000000000056570300210002875892088900000000000000000000NICOLAS DA SILVA                                                              Rua Doutor Loiola                                 640                                     Vila Tibrio                                                                     SP14050070nicpepe@terra.com.br                                                       AULA DE GINASTICA E AFINS                                       00043402Ribeirao Preto                                              Cartao de Credito                                           nicpepe@terra.com.br                                                                                                                                  
2RPS  A    00000000040920160305T000000000005990000000000000000056570300210002875892088900000000000000000000Nicolas da Silva Pepe                                                         Rua Doutor Loiola                                 640                                     Vila Tibrio                                                                     SP14050070nicpepe@terra.com.br                                                       AULA DE GINASTICA E AFINS                                       00043402Ribeirao Preto                                              Cartao de Credito                                           nicpepe@terra.com.br                                                                                                                                  
2RPS  A    00000000041020160305T000000000005990000000000000000056570300210000401760065400000000000000000000Marcelo de Souza Mendes                                                       R Dr Jose Guimaraes                               4                                       Jd Iraj                                                                         SP14020560marcelodgk@hotmail.com                                                     AULA DE GINASTICA E AFINS                                       00043402Ribeirao Preto                                              Cartao de Credito                                           marcelodgk@hotmail.com                                                                                                                                
2RPS  A    00000000041120160305T000000000005990000000000000000056570300210003038356280500000000000000000000Maria B Sandoval                                                              RD SP 328 kM 310                                  Casa 07                                 Bomfim Paulista                                                                 SP14110000juliolaurentino@hotmail.com                                                AULA DE GINASTICA E AFINS                                       00043402Ribeirao Preto                                              Cartao de Credito                                           juliolaurentino@hotmail.com                                                                                                                           
2RPS  A    00000000041220160305T000000000009990000000000000000056570300210000473433990200000000000000000000Micelio Luis Suzuki Fernandes                                                 Rua Guaruja                                       341                                     Jardim Paulista                                                                 SP14090102miceliolsf@gmail.com                                                       AULA DE GINASTICA E AFINS                                       00043402Ribeirao Preto                                              Cartao de Credito                                           miceliolsf@gmail.com                                                                                                                                  
2RPS  A    00000000041320160305T000000000005990000000000000000056570300210000473433990200000000000000000000Micelio Luis Suzuki Fernandes                                                 Rua Guaruja                                       341                                     Jardim Paulista                                                                 SP14090102miceliolsf@gmail.com                                                       AULA DE GINASTICA E AFINS                                       00043402Ribeirao Preto                                              Cartao de Credito                                           miceliolsf@gmail.com                                                                                                                                  
2RPS  A    00000000041420160305T000000000005990000000000000000056570300210003812237989300000000000000000000Cristiano Ls Raimo                                                            Vitorio Camriao                                   198                                     Joo B II                                                                        SP14140000cristianoraimo@hotmail.com                                                 AULA DE GINASTICA E AFINS                                       00043402Ribeirao Preto                                              Cartao de Credito                                           cristianoraimo@hotmail.com                                                                                                                            
2RPS  A    00000000041520160305T000000000005857000000000000000056570300210004065973589000000000000000000000Guilherme N Marsola                                                           Rua Professor Correa Leite                        677                                     Alto da Boa Vista                                                               SP14025650guilherme.g8@hotmail.com                                                   AULA DE GINASTICA E AFINS                                       00043402Ribeirao Preto                                              Cartao de Credito                                           guilherme.g8@hotmail.com                                                                                                                              
2RPS  A    00000000041620160305T000000000007590000000000000000056570300210004065973589000000000000000000000Guilherme N Marsola                                                           Rua Professor Correa Leite                        677                                     Alto da Boa Vista                                                               SP14025650guilherme.g8@hotmail.com                                                   AULA DE GINASTICA E AFINS                                       00043402Ribeirao Preto                                              Cartao de Credito                                           guilherme.g8@hotmail.com                                                                                                                              
2RPS  A    00000000041720160305T000000000009990000000000000000056570300210003722988888300000000000000000000Lia Leira Lipoli                                                              Garibalde                                         701                                     Centro                                                                          SP14010170lialipoli@hotmail.com                                                      AULA DE GINASTICA E AFINS                                       00043402Ribeirao Preto                                              Cartao de Credito                                           lialipoli@hotmail.com                                                                                                                                 
2RPS  A    00000000041820160305T000000000009990000000000000000056570300210004399470585100000000000000000000MATHEUS DE F SANTOS                                                           Avenida Carlos Consoni                            1100                                    Jardim Canad                                                                    SP14024270matfreitas@gmail.com                                                       AULA DE GINASTICA E AFINS                                       00043402Ribeirao Preto                                              Debito em conta                                             matfreitas@gmail.com                                                                                                                                  
2RPS  A    00000000041920160305T000000000005990000000000000000056570300210003722988888300000000000000000000Lia Leira Lipoli                                                              Garibalde                                         701                                     Centro                                                                          SP14010170lialipoli@hotmail.com                                                      AULA DE GINASTICA E AFINS                                       00043402Ribeirao Preto                                              Cartao de Credito                                           lialipoli@hotmail.com                                                                                                                                 
2RPS  A    00000000042020160305T000000000009990000000000000000056570300210001064178189000000000000000000000Ana La Saturaro                                                               Rua Elzira Sammarco Palma                         200                                     Bosque das Juritis                                                              SP14021684ana@grupomsp.ind.br                                                        AULA DE GINASTICA E AFINS                                       00043402Ribeirao Preto                                              Cartao de Credito                                           ana@grupomsp.ind.br                                                                                                                                   
2RPS  A    00000000042120160305T000000000005990000000000000000056570300210004399470585100000000000000000000MATHEUS DE F SANTOS                                                           Avenida Carlos Consoni                            1100                                    Jardim Canad                                                                    SP14024270matfreitas@gmail.com                                                       AULA DE GINASTICA E AFINS                                       00043402Ribeirao Preto                                              Debito em conta                                             matfreitas@gmail.com                                                                                                                                  
2RPS  A    00000000042220160305T000000000005990000000000000000056570300210001064178189000000000000000000000Ana La Saturaro                                                               Rua Elzira Sammarco Palma                         200                                     Bosque das Juritis                                                              SP14021684ana@grupomsp.ind.br                                                        AULA DE GINASTICA E AFINS                                       00043402Ribeirao Preto                                              Cartao de Credito                                           ana@grupomsp.ind.br                                                                                                                                   
2RPS  A    00000000042320160305T000000000009990000000000000000056570300210002202815481000000000000000000000Fernando M Oliveira                                                           R Heraclito Fontoura Sobral Pinto                 1855                                    Cond Guapor                                                                     SP14022000mgpnt@hotmail.com                                                          AULA DE GINASTICA E AFINS                                       00043402Ribeirao Preto                                              Cartao de Credito                                           mgpnt@hotmail.com                                                                                                                                     
2RPS  A    00000000042420160305T000000000005990000000000000000056570300210002202815481000000000000000000000Fernando M Oliveira                                                           R Heraclito Fontoura Sobral Pinto                 1855                                    Cond Guapor                                                                     SP14022000mgpnt@hotmail.com                                                          AULA DE GINASTICA E AFINS                                       00043402Ribeirao Preto                                              Cartao de Credito                                           mgpnt@hotmail.com                                                                                                                                     
2RPS  A    00000000042520160305T000000000005990000000000000000056570300210003621371087600000000000000000000Erica Cristina santos                                                         Rua Arnaldo Victaliano                            881                                     Jardim Palma Travassos                                                          SP14091220erikacdsantos@gmail.com                                                    AULA DE GINASTICA E AFINS                                       00043402Ribeirao Preto                                              Debito em conta                                             erikacdsantos@gmail.com                                                                                                                               
2RPS  A    00000000042620160305T000000000007990000000000000000056570300210003578438286100000000000000000000Mariana Rossi de oliveira                                                     Rua Doutor Francisco Augusto Cesar                653                                     Jardim Iraj                                                                     SP14020530marirossi2011@gmail.com                                                    AULA DE GINASTICA E AFINS                                       00043402Ribeirao Preto                                              Debito em conta                                             marirossi2011@gmail.com                                                                                                                               
2RPS  A    00000000042720160305T000000000009990000000000000000056570300210002759092488100000000000000000000Grazielle Faria de Souza Machado                                              Rua Antonio Rodrigues de Almeida                  425                                     Jardim Joo Rossi                                                                SP14026514grazifsm@gmail.com                                                         AULA DE GINASTICA E AFINS                                       00043402Ribeirao Preto                                              Cartao de Credito                                           grazifsm@gmail.com                                                                                                                                    
2RPS  A    00000000042820160305T000000000009990000000000000000056570300210004158734282000000000000000000000Francielle Scandoleiro                                                        Rua Americo Gabaldo                               388                                     Dom Bernardo Jos Mielle                                                         SP14057350franciellescandoleiro@hotmail.com                                          AULA DE GINASTICA E AFINS                                       00043402Ribeirao Preto                                              Cartao de Credito                                           franciellescandoleiro@hotmail.com                                                                                                                     
2RPS  A    00000000042920160305T000000000005990000000000000000056570300210002759092488100000000000000000000Grazielle Faria de Souza Machado                                              Rua Antonio Rodrigues de Almeida                  425                                     Jardim Joo Rossi                                                                SP14026514grazifsm@gmail.com                                                         AULA DE GINASTICA E AFINS                                       00043402Ribeirao Preto                                              Cartao de Credito                                           grazifsm@gmail.com                                                                                                                                    
2RPS  A    00000000043020160305T000000000005990000000000000000056570300210004158734282000000000000000000000Francielle Scandoleiro                                                        Rua Americo Gabaldo                               388                                     Dom Bernardo Jos Mielle                                                         SP14057350franciellescandoleiro@hotmail.com                                          AULA DE GINASTICA E AFINS                                       00043402Ribeirao Preto                                              Cartao de Credito                                           franciellescandoleiro@hotmail.com                                                                                                                     
2RPS  A    00000000043120160305T000000000009990000000000000000056570300210003344024388500000000000000000000Mariana Thieme Moraes Takahama                                                Rua Doutor Joaquim Estanislau de Gusmao           288                                     Presidente Mdici                                                                SP14091330mariana.takahama@gmail.com                                                 AULA DE GINASTICA E AFINS                                       00043402Ribeirao Preto                                              Cartao de Credito                                           mariana.takahama@gmail.com                                                                                                                            
2RPS  A    00000000043220160305T000000000005990000000000000000056570300210003344024388500000000000000000000Mariana Thieme Moraes Takahama                                                Rua Doutor Joaquim Estanislau de Gusmao           288                                     Presidente Mdici                                                                SP14091330mariana.takahama@gmail.com                                                 AULA DE GINASTICA E AFINS                                       00043402Ribeirao Preto                                              Cartao de Credito                                           mariana.takahama@gmail.com                                                                                                                            
2RPS  A    00000000043320160305T000000000009990000000000000000056570300210002202815481000000000000000000000Fernando M Oliveira                                                           Avenida Heraclito Fontoura Sobral Pinto           1855                                    Condomnio Guapor                                                                SP14022000classicmotors@uool.com.br                                                  AULA DE GINASTICA E AFINS                                       00043402Ribeirao Preto                                              Debito em conta                                             classicmotors@uool.com.br                                                                                                                             
2RPS  A    00000000043420160305T000000000005990000000000000000056570300210002202815481000000000000000000000Fernando M Oliveira                                                           Avenida Heraclito Fontoura Sobral Pinto           1855                                    Condomnio Guapor                                                                SP14022000classicmotors@uool.com.br                                                  AULA DE GINASTICA E AFINS                                       00043402Ribeirao Preto                                              Debito em conta                                             classicmotors@uool.com.br                                                                                                                             
2RPS  A    00000000043520160305T000000000009990000000000000000056570300210000713478780000000000000000000000Marcus Fabio Pimentel Ribas                                                   Rua Tibirica                                      1094                                    Centro                                                                          SP14010090marcusfabio@pimentelribas.com.br                                           AULA DE GINASTICA E AFINS                                       00043402Ribeirao Preto                                              Cartao de Credito                                           marcusfabio@pimentelribas.com.br                                                                                                                      
2RPS  A    00000000043620160305T000000000005990000000000000000056570300210004407692081300000000000000000000Ettore  Conceicao Grespan                                                     Rua Frei Antonio Alvares da Silva                 215                                     City Ribeiro                                                                    SP14021080ettore_tricolor@hotmail.com                                                AULA DE GINASTICA E AFINS                                       00043402Ribeirao Preto                                              Cartao de Credito                                           ettore_tricolor@hotmail.com                                                                                                                           
2RPS  A    00000000043720160305T000000000005990000000000000000056570300210000713478780000000000000000000000Marcus Fabio Pimentel Ribas                                                   Rua Tibirica                                      1094                                    Centro                                                                          SP14010090marcusfabio@pimentelribas.com.br                                           AULA DE GINASTICA E AFINS                                       00043402Ribeirao Preto                                              Cartao de Credito                                           marcusfabio@pimentelribas.com.br                                                                                                                      
2RPS  A    00000000043820160305T000000000009990000000000000000056570300210004318349985100000000000000000000Gabriel V Oliveira                                                            Rua Victorio Farnocchi                            436                                     Quintino Facci II                                                               SP14070510gabriel_12.09.96@hotmail.com                                               AULA DE GINASTICA E AFINS                                       00043402Ribeirao Preto                                              Cartao de Credito                                           gabriel_12.09.96@hotmail.com                                                                                                                          
2RPS  A    00000000043920160305T000000000005990000000000000000056570300210004318349985100000000000000000000Gabriel V Oliveira                                                            Rua Victorio Farnocchi                            436                                     Quintino Facci II                                                               SP14070510gabriel_12.09.96@hotmail.com                                               AULA DE GINASTICA E AFINS                                       00043402Ribeirao Preto                                              Cartao de Credito                                           gabriel_12.09.96@hotmail.com                                                                                                                          
2RPS  A    00000000044020160305T000000000005990000000000000000056570300210006228417720400000000000000000000Maria Aparecida Pereira Dinardi                                               Rua Itapura                                       724                                     Jardim Paulista                                                                 SP14090082cidinha@consinco.com.br                                                    AULA DE GINASTICA E AFINS                                       00043402Ribeirao Preto                                              Debito em conta                                             cidinha@consinco.com.br                                                                                                                               
2RPS  A    00000000044120160305T000000000009990000000000000000056570300210003365928782200000000000000000000Joao L J Palmitesta                                                           Rua Joao Perone                                   455                                     Nova Aliana                                                                     SP14026587joao.luiz.palmitesta@terra.com.br                                          AULA DE GINASTICA E AFINS                                       00043402Ribeirao Preto                                              Cartao de Credito                                           joao.luiz.palmitesta@terra.com.br                                                                                                                     
2RPS  A    00000000044220160305T000000000005990000000000000000056570300210003365928782200000000000000000000Joao L J Palmitesta                                                           Rua Joao Perone                                   455                                     Nova Aliana                                                                     SP14026587joao.luiz.palmitesta@terra.com.br                                          AULA DE GINASTICA E AFINS                                       00043402Ribeirao Preto                                              Cartao de Credito                                           joao.luiz.palmitesta@terra.com.br                                                                                                                     
2RPS  A    00000000044320160305T000000000007990000000000000000056570300210003845919086200000000000000000000Mariana Rodrigues Sargento                                                    R Carlos Ribeiro de Souza                         223                                     Centro                                                                          SP14110000mariana_sargento@hotmail.com                                               AULA DE GINASTICA E AFINS                                       00043402Ribeirao Preto                                              Cartao de Credito                                           mariana_sargento@hotmail.com                                                                                                                          
2RPS  A    00000000044420160305T000000000009990000000000000000056570300210003596738482000000000000000000000Andre Q B Freitas                                                             Rua Horacio Pessini                               80                                      Nova Aliana                                                                     SP14026590dedaquites@gmail.com                                                       AULA DE GINASTICA E AFINS                                       00043402Ribeirao Preto                                              Cartao de Credito                                           dedaquites@gmail.com                                                                                                                                  
2RPS  A    00000000044520160305T000000000005990000000000000000056570300210003596738482000000000000000000000Andre Q B Freitas                                                             Rua Horacio Pessini                               80                                      Nova Aliana                                                                     SP14026590dedaquites@gmail.com                                                       AULA DE GINASTICA E AFINS                                       00043402Ribeirao Preto                                              Cartao de Credito                                           dedaquites@gmail.com                                                                                                                                  
2RPS  A    00000000044620160305T000000000009990000000000000000056570300210000364783281200000000000000000000Reginaldo Storti                                                              Rua Zina Olga Caldo Donato                        318                                     Jose Sampaio                                                                    SP14065260bruno_petracca@hotmail.com                                                 AULA DE GINASTICA E AFINS                                       00043402Ribeirao Preto                                              Cartao de Credito                                           bruno_petracca@hotmail.com                                                                                                                            
2RPS  A    00000000044720160305T000000000005990000000000000000056570300210000364783281200000000000000000000Reginaldo Storti                                                              Rua Zina Olga Caldo Donato                        318                                     Jose Sampaio                                                                    SP14065260bruno_petracca@hotmail.com                                                 AULA DE GINASTICA E AFINS                                       00043402Ribeirao Preto                                              Cartao de Credito                                           bruno_petracca@hotmail.com                                                                                                                            
2RPS  A    00000000044820160305T000000000009990000000000000000056570300210003423212080700000000000000000000CAROLINE BAVARESCO                                                            av. Braz Olaia Acosta                             727                                     jd California                                                                   SP14026040darcio.arq@gmail.com                                                       AULA DE GINASTICA E AFINS                                       00043402Ribeirao Preto                                              Cartao de Credito                                           darcio.arq@gmail.com                                                                                                                                  
2RPS  A    00000000044920160305T000000000005990000000000000000056570300210003423212080700000000000000000000CAROLINE BAVARESCO                                                            av. Braz Olaia Acosta                             727                                     jd California                                                                   SP14026040darcio.arq@gmail.com                                                       AULA DE GINASTICA E AFINS                                       00043402Ribeirao Preto                                              Cartao de Credito                                           darcio.arq@gmail.com                                                                                                                                  
2RPS  A    00000000045020160305T000000000005990000000000000000056570300210003516460989400000000000000000000Cassiana Bartyotto                                                            Florencio Rosario                                 175                                     Bosque das Juritis                                                              SP14021615cassi_cassi@gmail.com                                                      AULA DE GINASTICA E AFINS                                       00043402Ribeirao Preto                                              Debito em conta                                             cassi_cassi@gmail.com                                                                                                                                 
2RPS  A    00000000045120160305T000000000005990000000000000000056570300210003864782384200000000000000000000Gustavo Oliveira                                                              Rua Afonso Arinos                                 1294                                    Jardim Piratininga                                                              SP14030530gustavo2.0live.ra@usp.br                                                   AULA DE GINASTICA E AFINS                                       00043402Ribeirao Preto                                              Cartao de Credito                                           gustavo2.0live.ra@usp.br                                                                                                                              
2RPS  A    00000000045220160305T000000000005990000000000000000056570300210001326866281100000000000000000000enilza alves de morais                                                        Avenida Doutor Joao Palma Guiao                   309                                     Alto da Boa Vista                                                               SP14025350nilza.morais@uol.com.br                                                    AULA DE GINASTICA E AFINS                                       00043402Ribeirao Preto                                              Debito em conta                                             nilza.morais@uol.com.br                                                                                                                               
2RPS  A    00000000045320160305T000000000009990000000000000000056570300210000316363014600000000000000000000italo pereira meireles fonseca                                                Rua Eugenio Rocha Filho                           290                                     Jardim Iraj                                                                     SP14020640italomeirelles@hotmail.com                                                 AULA DE GINASTICA E AFINS                                       00043402Ribeirao Preto                                              Cartao de Credito                                           italomeirelles@hotmail.com                                                                                                                            
2RPS  A    00000000045420160305T000000000005990000000000000000056570300210000316363014600000000000000000000italo pereira meireles fonseca                                                Rua Eugenio Rocha Filho                           290                                     Jardim Iraj                                                                     SP14020640italomeirelles@hotmail.com                                                 AULA DE GINASTICA E AFINS                                       00043402Ribeirao Preto                                              Cartao de Credito                                           italomeirelles@hotmail.com                                                                                                                            
2RPS  A    00000000045520160305T000000000005990000000000000000056570300210003734968380400000000000000000000Francisco N Navarro                                                           Rua Abrao Caixe                                   759                                     Jardim Iraj                                                                     SP14020630francisconunesnavarro@gmail.com                                            AULA DE GINASTICA E AFINS                                       00043402Ribeirao Preto                                              Cartao de Credito                                           francisconunesnavarro@gmail.com                                                                                                                       
2RPS  A    00000000045620160305T000000000009990000000000000000056570300210002935712587600000000000000000000Joao Paulo Borges Miranda                                                     Rua Salvador Cosso                                397                                     Jardim Iraj                                                                     SP14020580jotape27@hotmail.com                                                       AULA DE GINASTICA E AFINS                                       00043402Ribeirao Preto                                              Debito em conta                                             jotape27@hotmail.com                                                                                                                                  
2RPS  A    00000000045720160305T000000000009990000000000000000056570300210003314808488800000000000000000000Washington Luiz de Souza Fazza                                                Rua Chile                                         1499                                    Jd Iraj                                                                         SP14010620washington.fazza@hotmail.com                                               AULA DE GINASTICA E AFINS                                       00043402Ribeirao Preto                                              Debito em conta                                             washington.fazza@hotmail.com                                                                                                                          
2RPS  A    00000000045820160305T000000000005990000000000000000056570300210002935712587600000000000000000000Joao Paulo Borges Miranda                                                     Rua Salvador Cosso                                397                                     Jardim Iraj                                                                     SP14020580jotape27@hotmail.com                                                       AULA DE GINASTICA E AFINS                                       00043402Ribeirao Preto                                              Debito em conta                                             jotape27@hotmail.com                                                                                                                                  
2RPS  A    00000000045920160305T000000000005990000000000000000056570300210003314808488800000000000000000000Washington Luiz de Souza Fazza                                                Rua Chile                                         1499                                    Jd Iraj                                                                         SP14010620washington.fazza@hotmail.com                                               AULA DE GINASTICA E AFINS                                       00043402Ribeirao Preto                                              Debito em conta                                             washington.fazza@hotmail.com                                                                                                                          
2RPS  A    00000000046020160305T000000000007990000000000000000056570300210001222568683100000000000000000000Maria Lucila Celestino                                                        Rua Triunfo                                       425                                     Santa Cruz do Jos Jacques                                                       SP14020670LUCILACELESTINO@TERRA.COM.BR                                               AULA DE GINASTICA E AFINS                                       00043402Ribeirao Preto                                              Debito em conta                                             LUCILACELESTINO@TERRA.COM.BR                                                                                                                          
2RPS  A    00000000046120160305T000000000009990000000000000000056570300210003982118387500000000000000000000Paulo H C RODRIGUES                                                           Rua Joao Perone                                   175                                     Nova Aliana                                                                     SP14026587paulohcabrera@hotmail.com                                                  AULA DE GINASTICA E AFINS                                       00043402Ribeirao Preto                                              Cartao de Credito                                           paulohcabrera@hotmail.com                                                                                                                             
2RPS  A    00000000046220160305T000000000005990000000000000000056570300210003982118387500000000000000000000Paulo H C RODRIGUES                                                           Rua Joao Perone                                   175                                     Nova Aliana                                                                     SP14026587paulohcabrera@hotmail.com                                                  AULA DE GINASTICA E AFINS                                       00043402Ribeirao Preto                                              Cartao de Credito                                           paulohcabrera@hotmail.com                                                                                                                             
2RPS  A    00000000046320160305T000000000009990000000000000000056570300210003314715684200000000000000000000Adriano Jose P da Silva                                                       Rua Teresa Cristina                               548                                     Campos Elseos                                                                   SP14085540adrianophilipin@yahoo.com.br                                               AULA DE GINASTICA E AFINS                                       00043402Ribeirao Preto                                              Cartao de Credito                                           adrianophilipin@yahoo.com.br                                                                                                                          
2RPS  A    00000000046420160305T000000000005990000000000000000056570300210003314715684200000000000000000000Adriano Jose P da Silva                                                       Rua Teresa Cristina                               548                                     Campos Elseos                                                                   SP14085540adrianophilipin@yahoo.com.br                                               AULA DE GINASTICA E AFINS                                       00043402Ribeirao Preto                                              Cartao de Credito                                           adrianophilipin@yahoo.com.br                                                                                                                          
2RPS  A    00000000046520160305T000000000005990000000000000000056570300210002664738780300000000000000000000Cassio dos Santos Souza                                                       Rua Jose Leite Flores                             41                                      Independncia                                                                    SP14076380cassiossouza@adv.oabsp.org.br                                              AULA DE GINASTICA E AFINS                                       00043402Ribeirao Preto                                              Cartao de Credito                                           cassiossouza@adv.oabsp.org.br                                                                                                                         
2RPS  A    00000000046620160305T000000000009990000000000000000056570300210002180737181600000000000000000000Danilo Renato da Silva                                                        Rua Dr Paulo Barra                                1240                                    Jd Iraj                                                                         SP14020320danilorenatosilva@hotmail.com                                              AULA DE GINASTICA E AFINS                                       00043402Ribeirao Preto                                              Debito em conta                                             danilorenatosilva@hotmail.com                                                                                                                         
2RPS  A    00000000046720160305T000000000005990000000000000000056570300210002180737181600000000000000000000Danilo Renato da Silva                                                        Rua Dr Paulo Barra                                1240                                    Jd Iraj                                                                         SP14020320danilorenatosilva@hotmail.com                                              AULA DE GINASTICA E AFINS                                       00043402Ribeirao Preto                                              Debito em conta                                             danilorenatosilva@hotmail.com                                                                                                                         
2RPS  A    00000000046820160305T000000000009990000000000000000056570300210000125189214000000000000000000000Elinaldo V Bezerra                                                            Avenida Independencia                             4735                                    Jardim Califrnia                                                                SP14026150maiciana.santos@gmail.com                                                  AULA DE GINASTICA E AFINS                                       00043402Ribeirao Preto                                              Cartao de Credito                                           maiciana.santos@gmail.com                                                                                                                             
2RPS  A    00000000046920160305T000000000005990000000000000000056570300210000125189214000000000000000000000Elinaldo V Bezerra                                                            Avenida Independencia                             4735                                    Jardim Califrnia                                                                SP14026150maiciana.santos@gmail.com                                                  AULA DE GINASTICA E AFINS                                       00043402Ribeirao Preto                                              Cartao de Credito                                           maiciana.santos@gmail.com                                                                                                                             
2RPS  A    00000000047020160305T000000000005990000000000000000056570300210002582311880500000000000000000000Everaldo Ozorio Valadares                                                     Coronel Jose da Silva                             673                                     Bonfim Paulista                                                                 SP14110000taynap.bomfim@gmail.com                                                    AULA DE GINASTICA E AFINS                                       00043402Ribeirao Preto                                              Debito em conta                                             taynap.bomfim@gmail.com                                                                                                                               
2RPS  A    00000000047120160305T000000000009990000000000000000056570300210000125189214000000000000000000000Elinaldo V Bezerra                                                            Avenida Independencia                             4735                                    Jardim Califrnia                                                                SP14026150elinaldo.veras@gmail.com                                                   AULA DE GINASTICA E AFINS                                       00043402Ribeirao Preto                                              Cartao de Credito                                           elinaldo.veras@gmail.com                                                                                                                              
2RPS  A    00000000047220160305T000000000005990000000000000000056570300210000125189214000000000000000000000Elinaldo V Bezerra                                                            Avenida Independencia                             4735                                    Jardim Califrnia                                                                SP14026150elinaldo.veras@gmail.com                                                   AULA DE GINASTICA E AFINS                                       00043402Ribeirao Preto                                              Cartao de Credito                                           elinaldo.veras@gmail.com                                                                                                                              
2RPS  A    00000000047320160305T000000000009990000000000000000056570300210000364783281200000000000000000000reginaldo storti                                                              Rua Udelio Scodro                                 163                                     bosques das juritis                                                             SP14021680registorti@hotmail.com                                                     AULA DE GINASTICA E AFINS                                       00043402Ribeirao Preto                                              Cartao de Credito                                           registorti@hotmail.com                                                                                                                                
2RPS  A    00000000047420160305T000000000005990000000000000000056570300210000364783281200000000000000000000reginaldo storti                                                              Rua Udelio Scodro                                 163                                     bosques das juritis                                                             SP14021680registorti@hotmail.com                                                     AULA DE GINASTICA E AFINS                                       00043402Ribeirao Preto                                              Cartao de Credito                                           registorti@hotmail.com                                                                                                                                
2RPS  A    00000000047520160305T000000000009990000000000000000056570300210002182006389500000000000000000000Fabiano R Fernandes                                                           Rua Doutor Paulo Tinoco Cabral                    489                                     Jardim So Luiz                                                                  SP14020270alinesouza.am@hotmail.com                                                  AULA DE GINASTICA E AFINS                                       00043402Ribeirao Preto                                              Cartao de Credito                                           alinesouza.am@hotmail.com                                                                                                                             
2RPS  A    00000000047620160305T000000000005990000000000000000056570300210002182006389500000000000000000000Fabiano R Fernandes                                                           Rua Doutor Paulo Tinoco Cabral                    489                                     Jardim So Luiz                                                                  SP14020270alinesouza.am@hotmail.com                                                  AULA DE GINASTICA E AFINS                                       00043402Ribeirao Preto                                              Cartao de Credito                                           alinesouza.am@hotmail.com                                                                                                                             
2RPS  A    00000000047720160305T000000000009990000000000000000056570300210002182006389500000000000000000000Fabiano R Fernandes                                                           Rua Doutor Paulo Tinoco Cabral                    489                                     Jardim So Luiz                                                                  SP14020270starmillocacaodevan@hotmail.com                                            AULA DE GINASTICA E AFINS                                       00043402Ribeirao Preto                                              Cartao de Credito                                           starmillocacaodevan@hotmail.com                                                                                                                       
2RPS  A    00000000047820160305T000000000005990000000000000000056570300210002182006389500000000000000000000Fabiano R Fernandes                                                           Rua Doutor Paulo Tinoco Cabral                    489                                     Jardim So Luiz                                                                  SP14020270starmillocacaodevan@hotmail.com                                            AULA DE GINASTICA E AFINS                                       00043402Ribeirao Preto                                              Cartao de Credito                                           starmillocacaodevan@hotmail.com                                                                                                                       
2RPS  A    00000000047920160305T000000000009990000000000000000056570300210003298448583100000000000000000000Thaigo Consoni Florenzano                                                     Rua Capitao Jarbas Vieira de Souza                445 apt 18                              Jardim So Luiz                                                                  SP14020470thiagoflorenzano@grupowtb.com.br                                           AULA DE GINASTICA E AFINS                                       00043402Ribeirao Preto                                              Cartao de Credito                                           thiagoflorenzano@grupowtb.com.br                                                                                                                      
2RPS  A    00000000048020160305T000000000005990000000000000000056570300210003298448583100000000000000000000Thaigo Consoni Florenzano                                                     Rua Capitao Jarbas Vieira de Souza                445 apt 18                              Jardim So Luiz                                                                  SP14020470thiagoflorenzano@grupowtb.com.br                                           AULA DE GINASTICA E AFINS                                       00043402Ribeirao Preto                                              Cartao de Credito                                           thiagoflorenzano@grupowtb.com.br                                                                                                                      
2RPS  A    00000000048120160305T000000000007990000000000000000056570300210002701799686000000000000000000000Daniela Rizoti Lemes de So                                                    Rua Graca Aranha                                  823                                     Vila Virgnia                                                                    SP14030230danirizoti@gmail.com                                                       AULA DE GINASTICA E AFINS                                       00043402Ribeirao Preto                                              Debito em conta                                             danirizoti@gmail.com                                                                                                                                  
2RPS  A    00000000048220160305T000000000009990000000000000000056570300210003326625081800000000000000000000RENZO M BATAGLIA                                                              Avenida Giuseppe Cilento 1215                     1215                                    SP                                                                              SP14021650renzobataglia@outlook.com                                                  AULA DE GINASTICA E AFINS                                       00043402Ribeirao Preto                                              Cartao de Credito                                           renzobataglia@outlook.com                                                                                                                             
2RPS  A    00000000048320160305T000000000005990000000000000000056570300210003326625081800000000000000000000RENZO M BATAGLIA                                                              Avenida Giuseppe Cilento 1215                     1215                                    SP                                                                              SP14021650renzobataglia@outlook.com                                                  AULA DE GINASTICA E AFINS                                       00043402Ribeirao Preto                                              Cartao de Credito                                           renzobataglia@outlook.com                                                                                                                             
2RPS  A    00000000048420160305T000000000009990000000000000000056570300210003326625081800000000000000000000RENZO M BATAGLIA                                                              Avenida Giuseppe Cilento 1215                     1215                                    Jd Botnico                                                                      SP14021650shantallaz@hotmail.com                                                     AULA DE GINASTICA E AFINS                                       00043402Ribeirao Preto                                              Cartao de Credito                                           shantallaz@hotmail.com                                                                                                                                
2RPS  A    00000000048520160305T000000000005990000000000000000056570300210003326625081800000000000000000000RENZO M BATAGLIA                                                              Avenida Giuseppe Cilento 1215                     1215                                    Jd Botnico                                                                      SP14021650shantallaz@hotmail.com                                                     AULA DE GINASTICA E AFINS                                       00043402Ribeirao Preto                                              Cartao de Credito                                           shantallaz@hotmail.com                                                                                                                                
2RPS  A    00000000048620160305T000000000009990000000000000000056570300210003995445489600000000000000000000Guilherme L Alves                                                             Rua Franco da Rocha                               2498                                    Vila Virgnia                                                                    SP14030470guilhermeluizalvez1@gmail.com                                              AULA DE GINASTICA E AFINS                                       00043402Ribeirao Preto                                              Cartao de Credito                                           guilhermeluizalvez1@gmail.com                                                                                                                         
2RPS  A    00000000048720160305T000000000005990000000000000000056570300210003995445489600000000000000000000Guilherme L Alves                                                             Rua Franco da Rocha                               2498                                    Vila Virgnia                                                                    SP14030470guilhermeluizalvez1@gmail.com                                              AULA DE GINASTICA E AFINS                                       00043402Ribeirao Preto                                              Cartao de Credito                                           guilhermeluizalvez1@gmail.com                                                                                                                         
2RPS  A    00000000048820160305T000000000009990000000000000000056570300210002781024880400000000000000000000Anderson Jr Barbosa                                                           Rua Jose Aissum                                   566                                     Pq Bandeirantes                                                                 SP14090370andersonjrb@hotmail.com                                                    AULA DE GINASTICA E AFINS                                       00043402Ribeirao Preto                                              Cartao de Credito                                           andersonjrb@hotmail.com                                                                                                                               
2RPS  A    00000000048920160305T000000000005990000000000000000056570300210002781024880400000000000000000000Anderson Jr Barbosa                                                           Rua Jose Aissum                                   566                                     Pq Bandeirantes                                                                 SP14090370andersonjrb@hotmail.com                                                    AULA DE GINASTICA E AFINS                                       00043402Ribeirao Preto                                              Cartao de Credito                                           andersonjrb@hotmail.com                                                                                                                               
2RPS  A    00000000049020160305T000000000007990000000000000000056570300210007429775985300000000000000000000Willian Placidi                                                               Rua Eugenio Rocha Filho                           338                                     Jardim Iraj                                                                     SP14020640william.oranges@yahoo.com                                                  AULA DE GINASTICA E AFINS                                       00043402Ribeirao Preto                                              Cartao de Credito                                           william.oranges@yahoo.com                                                                                                                             
2RPS  A    00000000049120160305T000000000009990000000000000000056570300210003048739688000000000000000000000lucas belotti                                                                 Rua Magda Perona Frossard                         155                                     Nova Aliana                                                                     SP14026596lucasbelote@hotmail.com                                                    AULA DE GINASTICA E AFINS                                       00043402Ribeirao Preto                                              Cartao de Credito                                           lucasbelote@hotmail.com                                                                                                                               
2RPS  A    00000000049220160305T000000000005990000000000000000056570300210003048739688000000000000000000000lucas belotti                                                                 Rua Magda Perona Frossard                         155                                     Nova Aliana                                                                     SP14026596lucasbelote@hotmail.com                                                    AULA DE GINASTICA E AFINS                                       00043402Ribeirao Preto                                              Cartao de Credito                                           lucasbelote@hotmail.com                                                                                                                               
2RPS  A    00000000049320160305T000000000005990000000000000000056570300210001295882965000000000000000000000LEONARDO MARIANI CHAVES                                                       rua abraao caixe                                  1120                                    JD IRAJA                                                                        SP14020630caio_chaves27@hotmail.com                                                  AULA DE GINASTICA E AFINS                                       00043402Ribeirao Preto                                              Cartao de Credito                                           caio_chaves27@hotmail.com                                                                                                                             
2RPS  A    00000000049420160305T000000000009990000000000000000056570300210004403915582300000000000000000000Maisa C Silva                                                                 Rua Wanda Bastos Santiago                         86                                      Jardim Botanico                                                                 SP14900000maisa-decarvalho@hotmail.com                                               AULA DE GINASTICA E AFINS                                       00043402Ribeirao Preto                                              Cartao de Credito                                           maisa-decarvalho@hotmail.com                                                                                                                          
2RPS  A    00000000049520160305T000000000005990000000000000000056570300210004403915582300000000000000000000Maisa C Silva                                                                 Rua Wanda Bastos Santiago                         86                                      Jardim Botanico                                                                 SP14900000maisa-decarvalho@hotmail.com                                               AULA DE GINASTICA E AFINS                                       00043402Ribeirao Preto                                              Cartao de Credito                                           maisa-decarvalho@hotmail.com                                                                                                                          
2RPS  A    00000000049620160305T000000000007990000000000000000056570300210002262994587100000000000000000000LUCAS DE SOUZA NUNES                                                          JOAO BASTISTA SANTANNA                            215                                     RESERVA SUL CONDOMINIO                                                          SP14022320nunes@consinco.com.br                                                      AULA DE GINASTICA E AFINS                                       00043402Ribeirao Preto                                              Debito em conta                                             nunes@consinco.com.br                                                                                                                                 
2RPS  A    00000000049720160305T000000000009990000000000000000056570300210003258451486900000000000000000000lidiane de cassia naves manzo ielo                                            Rua Doutor Jose Guimaraes                         188                                     Jardim Iraj                                                                     SP14020560fmielo@gmail.com                                                           AULA DE GINASTICA E AFINS                                       00043402Ribeirao Preto                                              Debito em conta                                             fmielo@gmail.com                                                                                                                                      
2RPS  A    00000000049820160305T000000000005990000000000000000056570300210003258451486900000000000000000000lidiane de cassia naves manzo ielo                                            Rua Doutor Jose Guimaraes                         188                                     Jardim Iraj                                                                     SP14020560fmielo@gmail.com                                                           AULA DE GINASTICA E AFINS                                       00043402Ribeirao Preto                                              Debito em conta                                             fmielo@gmail.com                                                                                                                                      
2RPS  A    00000000049920160305T000000000009990000000000000000056570300210000127761764300000000000000000000Flavio Zampar                                                                 RUA CAMILO DE MATTOS                              1215                                    Jardim Paulista                                                                 SP14090210zamparflavio1@gmail.com                                                    AULA DE GINASTICA E AFINS                                       00043402Ribeirao Preto                                              Cartao de Credito                                           zamparflavio1@gmail.com                                                                                                                               
